:1000000062C00000D8C6000003C7000083C0000023
:1000100081C000007FC000007DC000007BC00000E8
:1000200079C0000077C0000075C0000073C00000F8
:1000300071C000006FC000006DC000006BC0000008
:1000400014C7000067C000000C9476090C94B7092F
:1000500061C000005FC000005DC000005BC0000028
:1000600059C0000057C00000000000070002010056
:100070000003040600000000000000000102040864
:100080001020408001020408102001020408102002
:10009000040404040404040402020202020203032E
:1000A00003030303000000002300260029000000D2
:1000B0000000250028002B0000000000240027007D
:1000C0002A00AF06710A11241FBECFEFD8E0DEBFB1
:1000D000CDBF11E0A0E0B1E0E2EBF7E102C0059096
:1000E0000D92AA31B107D9F711E0AAE1B1E001C040
:1000F0001D92AF3EB107E1F710E0C6ECD0E004C0BE
:100100002297FE010E94D30BC23CD107C9F710D33E
:100110000C94D70B75CF81E090E008952F923F9219
:100120004F925F926F927F929F92AF92BF92CF92C7
:10013000DF92EF92FF920F931F93CF93DF93CDB790
:10014000DEB728970FB6F894DEBF0FBECDBF8C0187
:1001500040E058E067E070E085E491E00E94F20939
:1001600080E395E7A0E0B0E0F80183839483A58362
:10017000B68382E0F7D7F82EF801828365E070E05D
:1001800080E090E0F8D682E0EDD7F8018283F8169F
:1001900081F3FF2071F31801F2E02F0E311CC1D65C
:1001A0002B013C01C12CD12C7601A12CB12C82E079
:1001B000D9D7982EF101808365E070E080E090E06F
:1001C000DAD682E0CFD7F1018083981681F39920A7
:1001D00071F3F3E0AF16B1040CF07BC2FFEFAF1A7E
:1001E000BF0A46E3D41A45E6E40A44ECF40A82E383
:1001F000A816B104E1F65801EDE1AE0EB11C3501CF
:10020000F50188E691E02081318132FF03C034504E
:1002100031832083019732960097A9F7B801635381
:100220007F4FC8018F569F4FD501D89625012EE3E9
:1002300030E0F201E080F180F1FE05C0F2E0FF1A4B
:10024000F201F182E082F201E280F380F1FE05C06A
:10025000F2E0FF1AF201F382E282F901FC97EE0F5D
:10026000FF1FEA0DFB1D5AE1E52EF12CC080D18065
:10027000D1FC04C04EEFD41AD182C08241E0E41A0E
:10028000F1083296E114F10489F7ED91FC91119790
:10029000F1FF04C0F2501196FC93EE931296ED918B
:1002A000FC911397F1FF05C0F2501396FC93EE9367
:1002B00012971496ED91FC911597F1FF05C0F2503D
:1002C0001596FC93EE9314971696ED91FC91179763
:1002D000F1FF05C0F2501796FC93EE931697F901C3
:1002E0007E97EE0FFF1FEA0DFB1D50E2E52EF12C6D
:1002F000C080D180D1FC04C04EEFD41AD182C0821C
:100300004FEFE41AF40A32964AE3E416F10481F757
:10031000FC01E080F180F1FE05C0F2E0FF1AFC0173
:10032000F182E082FC01E280F380F1FE05C0F2E0A0
:10033000FF1AFC01F382E282FC01E480F580F1FE09
:1003400005C0F2E0FF1AFC01F582E482FC01E680C0
:10035000F780F1FE05C0F2E0FF1AFC01F782E682A9
:10036000F901EE0FFF1FEA0DFB1D5EE3E52EF12CF8
:10037000C080D180D1FC04C04EEFD41AD182C0829B
:100380004FEFE41AF40A329648E5E416F10481F7D7
:10039000FB01E080F180F1FE05C0F2E0FF1AFB01F5
:1003A000F182E082FB01E280F380F1FE05C0F2E021
:1003B000FF1AFB01F382E282F4EB4F0E511C6C54E6
:1003C0007F4F265A3F4F8C549F4FAC54BF4F263A15
:1003D00041E0340709F02DCFF801E351FD4F81E0F2
:1003E000808382E0818383E08283F50120E030E036
:1003F0008081918180FD03C001969183808381FD7E
:1004000003C002969183808382FD03C0049691838A
:10041000808383FD03C008969183808384FD03C09D
:1004200040969183808385FD03C08096918380836D
:1004300086FD04C0805C9F4F9183808387FD04C04C
:1004400080589F4F9183808390FD03C09395918343
:1004500080832F5F3F4F3296283681E0380741F680
:10046000F801E75AFF4F8081918180FF03C0019717
:100470009183808381FF03C002979183808382FFF1
:1004800003C004979183808383FF03C008979183FF
:100490008083F80185A996A980FF03C0019796ABD8
:1004A00085AB81FF04C00297F80196AB85AB82FF54
:1004B00004C00497F80196AB85AB83FF04C008978E
:1004C000F80196AB85AB84FF04C04097F80196AB6A
:1004D00085AB85FF04C08097F80196AB85ABF8012A
:1004E000EF5BFF4F8081918180FF03C00197918373
:1004F000808381FF03C002979183808382FF03C0C2
:1005000004979183808383FF03C00897918380833E
:1005100084FF03C040979183808385FF03C0809749
:100520009183808386FF04C08054910991838083E6
:1005300087FF04C08058910991838083F801E051BE
:10054000FD4F1182108282E00DD6F8018283EE50B9
:10055000FD4F91E0811101C090E09083D0D4F8016B
:10056000ED50FD4F71836083F801E950FD4F11821A
:100570001082F801EB50FD4F1182108208E611E065
:10058000F30160817181617077274AE050E085E472
:1005900091E00E94AA0BF3016081669561704AE0C8
:1005A00050E070E085E491E00E94AA0BF3016081C5
:1005B00062FB662760F94AE050E070E085E491E074
:1005C0000E94AA0BF301608163FB662760F94AE091
:1005D00050E070E085E491E00E94AA0BF301608195
:1005E000629561704AE050E070E085E491E00E941D
:1005F000AA0BF301608165FB662760F94AE050E0D1
:1006000070E085E491E00E94AA0BF301608166FB33
:10061000662760F94AE050E070E085E491E00E94CE
:10062000AA0BF301608167FB662760F94AE050E09E
:1006300070E085E491E00E94AA0BF3018081918132
:10064000882791704AE050E0692F70E085E491E0DE
:100650000E94AA0BF3018081918188279270692FF3
:1006600066954AE050E070E085E491E00E94AA0BB4
:10067000F301819191913F0188279470692F6695CC
:1006800066954AE050E070E085E491E00E94AA0B94
:1006900060E071E085E491E0D3D70150110909F0E1
:1006A0006FCF28960FB6F894DEBF0FBECDBFDF9197
:1006B000CF911F910F91FF90EF90DF90CF90BF905F
:1006C000AF909F907F906F905F904F903F902F9052
:1006D000089527D49B01AC0124193509460957090F
:1006E0002D833E834F8358871CD42B013C01F80196
:1006F00083819481A581B681BF7783839483A58309
:10070000B683C701B6012D813E814F8158850E9475
:10071000AF0B29833A834B835C832AE030E0498125
:100720005A816B817C8185E491E00E94980B56CDC3
:10073000CF93DF93CDB7DEB7C95FD2400FB6F89441
:10074000DEBF0FBECDBF3BD483E089838EE08A83BA
:1007500082E08B8385E088878DE089878CE08A87BB
:1007600086E08B878BE08C8789E08D878AE08E8797
:1007700087E08F8788E0888B84E0898B8FE08A8B85
:100780001B8A1C8A1D8A1E8A1F8A188E198E1A8E31
:100790001B8E1C8E1D8E61E085E076D461E089851C
:1007A00073D461E08A8570D461E08B856DD461E09B
:1007B0008C856AD461E08D8567D461E08E8564D4D0
:1007C00061E08F8561D461E088895ED461E08989C8
:1007D0005BD461E08A8958D488858B8B89858C8B22
:1007E0008A858D8B8B858E8B8C858F8B8D85888F65
:1007F0008E85898F8F858A8F88898B8F89898C8F49
:100800008A898D8FFE017E968E0102511D4F1192B5
:100810001192E017F107D9F7F8011082C151DD4FAD
:100820001882CF5ED240C051DD4F1882C05FD240E7
:1008300060E0898129D460E08A8126D462E08B81DE
:1008400023D481E090E0A0E0B0E08C839D83AE8370
:10085000BF83FE017E968FEF9FEF81939193E01708
:10086000F107D9F761E08B8947D461E08C8944D4E2
:1008700061E08D8941D461E08E893ED461E08F8949
:100880003BD461E0888D38D461E0898D35D461E056
:100890008A8D32D461E08B8D2FD461E08C8D2CD485
:1008A00061E08D8D29D4CE01019638DCA0EBEA2ED3
:1008B000A9E0FA2EBBEADB2E04C0E114F10409F032
:1008C0004FD5CF50DD4FA880B980C15FD240AA0C70
:1008D000BB1C81E090E08C0F9D1FA80EB91EF50196
:1008E000658D768D617077278B8906D4F501658DCE
:1008F000669561708C8900D4F501658D62FB662771
:1009000060F98D89F9D3F501658D63FB662760F980
:100910008E89F2D3F501658D629561708F89ECD374
:10092000F501658D65FB662760F9888DE5D3F501D6
:10093000658D66FB662760F9898DDED3F501658DCF
:1009400067FB662760F98A8DD7D3F501858D968D73
:1009500088279170692F8B8DCFD3F501858D968D6A
:1009600088279270692F66958C8DC6D3F501858D89
:10097000968D88279470692F669566958D8DBCD36A
:10098000CF50DD4F88819981C15FD2400196883672
:10099000F1E09F0709F487C1CF50DD4F9983888329
:1009A000C15FD240CD50DD4F8881C35FD2408111FD
:1009B00052C1A5D2CC50DD4F28813981C45FD240CD
:1009C000621B730B81099109693E73408105910592
:1009D00008F473CFC051DD4F2881C05FD2402F5F34
:1009E000C051DD4F2883C05FD2402C3309F462C16F
:1009F000C151DD4F4881CF5ED240F80190819D9D6D
:100A0000612D1124669566956695862F880F860F51
:100A1000880F880F692F681BFEE16F9FB0011124BA
:100A200086E0489FA001112496E0299F900111249F
:100A3000FE017E968081918180FD03C001969183A5
:100A4000808381FD03C002969183808382FD03C071
:100A500004969183808383FD03C0089691838083ED
:100A600084FD03C040969183808385FD03C08096FA
:100A70009183808386FD04C0805C9F4F9183808337
:100A800087FD04C080589F4F9183808390FD03C0F1
:100A900093959183808332960E171F0759F6660F40
:100AA000771FE1E0F0E0EC0FFD1FE60FF71F858DEB
:100AB000968D80FF03C00197968F858F81FF09C0B7
:100AC0000297E1E0F0E0EC0FFD1FE60FF71F968FB5
:100AD000858F82FF09C00497E1E0F0E0EC0FFD1F75
:100AE000E60FF71F968F858F83FF09C0E1E0F0E0E6
:100AF000EC0FFD1FE60FF71F0897968F858F440FA9
:100B0000551FE1E0F0E0EC0FFD1FE40FF51F858DB0
:100B1000968D80FF03C00197968F858F81FF09C056
:100B20000297E1E0F0E0EC0FFD1FE40FF51F968F58
:100B3000858F82FF09C00497E1E0F0E0EC0FFD1F14
:100B4000E40FF51F968F858F83FF09C00897E1E0BA
:100B5000F0E0EC0FFD1FE40FF51F968F858F84FFEB
:100B600009C04097E1E0F0E0EC0FFD1FE40FF51F36
:100B7000968F858F85FF09C0E1E0F0E0EC0FFD1F47
:100B8000E40FF51F8097968F858F220F331FE1E0CA
:100B9000F0E0EC0FFD1FE20FF31F858D968D80FFB7
:100BA00003C00197968F858F81FF09C00297E1E00E
:100BB000F0E0EC0FFD1FE20FF31F968F858F82FF91
:100BC00009C00497E1E0F0E0EC0FFD1FE20FF31F16
:100BD000968F858F83FF09C00897E1E0F0E0EC0F66
:100BE000FD1FE20FF31F968F858F84FF09C040978A
:100BF000E1E0F0E0EC0FFD1FE20FF31F968F858F11
:100C000085FF09C08097E1E0F0E0EC0FFD1FE20FE7
:100C1000F31F968F858F86FF0AC080549109E1E00B
:100C2000F0E0EC0FFD1FE20FF31F968F858F87FF1B
:100C30000AC0E1E0F0E0EC0FFD1FE20FF31F805867
:100C40009109968F858F5BD1CC50DD4F7983688376
:100C5000C45FD24032CE82E085D28B838111A9CE8F
:100C6000CF50DD4F19821882C15FD240C850DD4F8E
:100C700088819981C85FD240CA50DD4F99838883AB
:100C8000C65FD2404ED1C850DD4F79836883C85FBC
:100C9000D2408C819D81AE81BF81BF778C839D8343
:100CA000AE83BF8386CECF50DD4F19821882C15FDD
:100CB000D24078CEC051DD4F1882C05FD240C151C2
:100CC000DD4F4881CF5ED2404F5FC151DD4F488339
:100CD000CF5ED2404C33D1F0F80190819D9D612DC3
:100CE0001124669566956695862F880F860F880F66
:100CF000880F692F681BFEE16F9FB001112426E069
:100D0000429FA001112420E030E092CEC151DD4F7E
:100D10001882CF5ED240F80180818F5F8D9D612D5A
:100D20001124669566956695962F990F960F990FE3
:100D3000990F682F691B49F4F801108220E030E018
:100D400040E050E060E070E073CE8083FEE16F9F92
:100D5000B001112420E030E040E050E069CE81E0B5
:100D600080933701109232011092310185E091E0B9
:100D70009093300180932F0110922E01EAE1F1E06F
:100D800010821182128213821482158216821782B7
:100D9000E2E2F1E010821182128213821482158243
:100DA0001682178210922A0110922B0110922C01A8
:100DB00010922D0108951F920F920FB60F921124D9
:100DC0002F933F934F935F936F937F938F939F9353
:100DD000AF93BF93EF93FF938091380190913901C6
:100DE000892B29F0E0913801F09139010995FF91A3
:100DF000EF91BF91AF919F918F917F916F915F9193
:100E00004F913F912F910F900FBE0F901F9018950B
:100E10001F920F920FB60F9211242F933F934F936F
:100E20005F936F937F938F939F93AF93BF93EF9352
:100E3000FF9380913A0190913B01892B29F0E09139
:100E40003A01F0913B010995FF91EF91BF91AF916C
:100E50009F918F917F916F915F914F913F912F91D2
:100E60000F900FBE0F901F9018951F920F920FB604
:100E70000F9211242F933F938F939F93AF93BF9320
:100E800080913C0190913D01A0913E01B0913F01C4
:100E900030914401232F2D5F2D3720F40196A11DA1
:100EA000B11D05C0232F2A570296A11DB11D209305
:100EB000440180933C0190933D01A0933E01B09387
:100EC0003F018091400190914101A0914201B09178
:100ED00043010196A11DB11D8093400190934101F2
:100EE000A0934201B0934301BF91AF919F918F9125
:100EF0003F912F910F900FBE0F901F9018950F9359
:100F00001F938FB7F89400913C0110913D012091FF
:100F10003E0130913F018FBFB801C9011F910F9170
:100F200008950F931F939FB7F8940091400110917B
:100F30004101209142013091430186B5A89B06C032
:100F40008F3F21F00F5F1F4F2F4F3F4F9FBF322F1B
:100F5000212F102F0027080F111D211D311D42E0E8
:100F6000000F111F221F331F4A95D1F7B801C90185
:100F70001F910F910895CF92DF92EF92FF92CF933E
:100F8000DF936B017C01CDDFEB010DC0CADF6C1B71
:100F90007D0B683E734038F081E0C81AD108E10843
:100FA000F108C851DC4FC114D104E104F10471F718
:100FB000DF91CF91FF90EF90DF90CF9008957894DC
:100FC00084B5826084BD84B5816084BD85B582604E
:100FD00085BD85B5816085BDEEE6F0E080818160EC
:100FE0008083E1E8F0E010828081826080838081EC
:100FF00081608083E0E8F0E0808181608083E1EBC4
:10100000F0E0808184608083E0EBF0E080818160AB
:101010008083EAE7F0E08081846080838081826061
:10102000808380818160808380818068808310924A
:10103000C1000895833069F028F48130A1F0823036
:1010400011F514C08630B1F08730C1F08430D9F486
:1010500004C0809180008F7703C0809180008F7DD5
:1010600080938000089584B58F7702C084B58F7D0A
:1010700084BD08958091B0008F7703C08091B00047
:101080008F7D8093B0000895CF93DF9390E0FC01B3
:10109000E458FF4F4491FC01E057FF4F84918823AF
:1010A00041F190E0880F991FFC01E854FF4F259112
:1010B0003491D90182559F4FFC0185919491C82F9D
:1010C000D92F9FB7F8948C91611106C04095842365
:1010D0008C938881842308C0623041F4242F2095AA
:1010E00082238C938881842B888302C0842B8C93E9
:1010F0009FBFDF91CF9108950F931F93CF93DF93FD
:101100001F92CDB7DEB7282F30E0F901E859FF4F25
:101110008491F901E458FF4F1491F901E057FF4F12
:1011200004910023C9F0882319F0698383DF698162
:10113000E02FF0E0EE0FFF1FE255FF4F85919491F5
:10114000DC019FB7F8948C91611103C01095812345
:1011500001C0812B8C939FBF0F90DF91CF911F9186
:101160000F910895CF93DF93282F30E0F901E859CC
:10117000FF4F8491F901E458FF4FD491F901E057F2
:10118000FF4FC491CC2381F0811154DFEC2FF0E0AC
:10119000EE0FFF1FEC55FF4F85919491DC018C9170
:1011A0008D2321E030E011F420E030E0C901DF912F
:1011B000CF910895FC0184859585FC01E05CFF4F8B
:1011C00020813181FC01EE5BFF4F80819181281BE2
:1011D000390B2F733327C9010895FC018485958548
:1011E000FC01E05CFF4F40815181FC01EE5BFF4F51
:1011F000208131814217530741F00190F081E02DA9
:10120000E80FF91F208130E002C02FEF3FEFC90146
:101210000895FC0184859585FC01E05CFF4F4081C9
:101220005181FC01EE5BFF4F208131814217530752
:1012300081F0A081B181A80FB91F8C9120813181EB
:101240002F5F3F4F2F73332731832083282F30E0C8
:1012500002C02FEF3FEFC9010895FC0181A188234F
:1012600029F0A489B5898C9186FFFBCF11A208953E
:10127000CF93DF93FC0126853785D901A05CBF4F52
:101280008D919C91119701968F739927E901CE5BFF
:10129000DF4F4881598184179507D9F30D90BC9190
:1012A000A02DA20FB31F6C93A685B785A05CBF4F7E
:1012B00011969C938E93A689B7892C9181E090E03A
:1012C000078C02C0880F991F0A94E2F7282B2C93F1
:1012D00081E081A30488F589E02D8081806480838A
:1012E00081E090E0DF91CF91089508951F920F92D1
:1012F0000FB60F9211242F933F934F938F939F9389
:10130000EF93FF938091C00082FD1CC04091C60006
:101310008091EB019091EC0101968F7399272091B8
:10132000ED013091EE018217930771F0E091EB012E
:10133000F091EC01E555FE4F40839093EC018093D2
:10134000EB0102C08091C600FF91EF919F918F91B8
:101350004F913F912F910F900FBE0F901F901895B6
:1013600085E491E027DF892B09F0BFCF08951F9214
:101370000F920FB60F9211242F933F938F939F9349
:10138000EF93FF932091A7013091A8018091A901CB
:101390009091AA012817390731F48091C1008F7DFF
:1013A0008093C10014C0E091A901F091AA01E9590C
:1013B000FE4F20818091A9019091AA0101968F731F
:1013C00099279093AA018093A9012093C600FF91C9
:1013D000EF919F918F913F912F910F900FBE0F90A2
:1013E0001F901895CF92DF92EF92FF92CF93DF93E9
:1013F000EC016A017B01411581EE58076105710519
:10140000F1F0EC89FD8981E090E008A002C0880F2E
:10141000991F0A94E2F7808360E079E08DE390E021
:10142000A70196019CD121503109410951095695D6
:10143000479537952795211580E1380790F0EC897D
:10144000FD89108260E874E88EE190E0A7019601C2
:1014500086D1215031094109510956954795379553
:101460002795E889F9893083EA89FB89208319A2C5
:10147000EE89FF89408181E090E09C010C8C02C0E4
:10148000220F331F0A94E2F7422B4083EE89FF8933
:1014900040819C010D8C02C0220F331F0A94E2F799
:1014A000422B4083EE89FF8940819C010E8C02C053
:1014B000220F331F0A94E2F7422B4083EE89FF8903
:1014C00020810F8C02C0880F991F0A94E2F7809543
:1014D00082238083DF91CF91FF90EF90DF90CF90B8
:1014E0000895109248011092470188EE93E0A0E021
:1014F000B0E08093490190934A01A0934B01B093CF
:101500004C018DE091E090934601809345018BEA78
:1015100091E0909352018093510187E691E090937E
:1015200054018093530185EC90E090935601809391
:10153000550184EC90E0909358018093570180EC22
:1015400090E090935A018093590181EC90E0909340
:101550005C0180935B0182EC90E090935E0180934C
:101560005D0186EC90E09093600180935F0184E0E0
:101570008093610183E08093620187E0809363013F
:1015800085E08093640181E0809365010895CF92A6
:10159000DF92EF92FF920F931F93CF93DF936C0133
:1015A000EB017A01E60EF71E00E010E00BC0699136
:1015B000D601ED91FC910190F081E02DC6010995D5
:1015C000080F191FCE15DF0591F7C801DF91CF91E4
:1015D0001F910F91FF90EF90DF90CF9008956115CC
:1015E000710581F0DB010D900020E9F7AD0141505C
:1015F0005109461B570BDC01ED91FC910280F381F0
:10160000E02D099480E090E00895DC01ED91FC91DB
:101610000190F081E02D09940F931F93CF93DF93F6
:10162000EC016DE0F2DF8C016AE0CE01EEDF9C019F
:10163000200F311FC901DF91CF911F910F910895A4
:101640000F931F93CF93DF93EC01C9DF8C01CE0181
:10165000E3DF9801280F391FC901DF91CF911F9156
:101660000F9108954F925F926F927F929F92AF92E7
:10167000BF92CF92DF92EF92FF920F931F93CF937F
:10168000DF93CDB7DEB7A1970FB6F894DEBF0FBEDC
:10169000CDBF5C016A017B01922E19A281E0821705
:1016A00010F08AE0982E8E010F5D1F4F492C512CAF
:1016B000612C712CC701B601A301920150D08C2D71
:1016C000929E80191124015011098A3014F4805D12
:1016D00001C0895CF801808369017A01C114D104D9
:1016E000E104F10439F7B801C50179DFA1960FB61D
:1016F000F894DEBF0FBECDBFDF91CF911F910F9148
:10170000FF90EF90DF90CF90BF90AF909F907F9031
:101710006F905F904F9008952115310541F4DC01E1
:10172000ED91FC910190F081E02D642F09949ACF06
:101730000F931F93CF93DF93EC01EEDF8C01CE016B
:101740006BDF9C01200F311FC901DF91CF911F91E9
:101750000F9108959A01AB0160E070E0DDCFA1E246
:101760001A2EAA1BBB1BFD010DC0AA1FBB1FEE1F1B
:10177000FF1FA217B307E407F50720F0A21BB30B66
:10178000E40BF50B661F771F881F991F1A9469F7E2
:1017900060957095809590959B01AC01BD01CF013E
:1017A0000895EE0FFF1F0590F491E02D0994F89431
:0217B000FFCF69
:1017B20000000000008B00C70A000000003809C7C3
:0A17C2000ADA080909ED082D0900F4
:00000001FF
