:1000000062C000009AC50000C5C5000083C00000A2
:1000100081C000007FC000007DC000007BC00000E8
:1000200079C0000077C0000075C0000073C00000F8
:1000300071C000006FC000006DC000006BC0000008
:10004000D6C5000067C000000C9438080C947908ED
:1000500061C000005FC000005DC000005BC0000028
:1000600059C0000057C00000000000070002010056
:100070000003040600000000000000000102040864
:100080001020408001020408102001020408102002
:10009000040404040404040402020202020203032E
:1000A00003030303000000002300260029000000D2
:1000B0000000250028002B0000000000240027007D
:1000C0002A007105330911241FBECFEFD8E0DEBF2F
:1000D000CDBF11E0A0E0B1E0ECE2F5E102C0059097
:1000E0000D92A032B107D9F711E0A0E2B1E001C052
:1000F0001D92A53FB107E1F710E0C6ECD0E004C0C7
:100100002297FE010E94900AC23CD107C9F706D08F
:100110000C94940A75CF81E090E00895CF93DF931B
:10012000CDB7DEB7C550D3400FB6F894DEBF0FBED3
:10013000CDBF07D661E085E069D661E08DE066D687
:1001400061E08CE063D661E086E060D661E08BE040
:100150005DD661E089E05AD661E08AE057D661E079
:1001600087E054D661E088E051D661E084E04ED665
:1001700061E08FE04BD685E08B8B8DE08C8B8CE043
:100180008D8B86E08E8B8BE08F8B89E0888F8AE069
:10019000898F87E08A8F88E08B8F84E08C8F8FE057
:1001A0008D8FFE017E968E0102511D4F119211928C
:1001B000E017F107D9F760E083E028D660E08EE031
:1001C00025D662E082E022D66ED5AB01BC012AE0E2
:1001D00030E08BE491E00E945A0AFE017E968FEF98
:1001E0009FEF81939193E017F107D9F75CD5AB01AD
:1001F000BC012AE030E08BE491E00E945A0A61E001
:100200008B893CD661E08C8939D661E08D8936D600
:1002100061E08E8933D661E08F8930D661E0888DC8
:100220002DD661E0898D2AD661E08A8D27D661E0DE
:100230008B8D24D661E08C8D21D661E08D8D1ED60C
:1002400040E058E067E070E08BE491E08DD782E019
:100250004BD6F82E65E070E080E090E04ED582E06D
:1002600043D6F816A1F3FF2091F31DD54B015C0195
:10027000C12CD12C7601712C82E036D6682E65E037
:1002800070E080E090E039D582E02ED66816A1F3C8
:10029000662091F3F2E0F71508F444C3739426E363
:1002A000D21A25E6E20A24ECF20A32E37312E4CF12
:1002B000FE017E968081918192FF03C094509183CC
:1002C00080833296E017F107A9F7CE018A569F4F37
:1002D000DE01A65ABF4FEEE1CE2ED12CCC0EDD1E94
:1002E00040E450E0F6012081318131FF03C03250FB
:1002F00031832083F6012281338131FF03C03250E4
:1003000033832283F6012481358131FF03C03250CB
:1003100035832483F6012681378131FF03C03250B3
:10032000378326839A012C533109220F331F61E052
:1003300070E06C0F7D1F260F371F235E3F4F74E068
:10034000F72EF9016081718171FD03C07E5F7183B9
:100350006083F3942E5F3F4FFEE1FF12F2CF2D91A9
:100360003C91119731FF04C0325011963C932E936B
:1003700012962D913C91139731FF05C03250139680
:100380003C932E93129714962D913C91159731FF23
:1003900005C0325015963C932E93149716962D91C6
:1003A0003C91179731FF05C0325017963C932E931E
:1003B00016979A012E513109220F331F61E070E028
:1003C0006C0F7D1F260F371F235E3F4FFAE1FF2E74
:1003D000F9016081718171FD03C07E5F718360836B
:1003E000FA942E5F3F4FF110F3CFFC012081318151
:1003F00031FF03C0325031832083FC0122813381DD
:1004000031FF03C0325033832283FC0124813581C4
:1004100031FF03C0325035832483FC0126813781AC
:1004200031FF03C03250378326839A01220F331FD6
:1004300061E070E06C0F7D1F260F371F235E3F4F7A
:1004400070E4F72EF9016081718171FD03C07E5F58
:1004500071836083F3942E5F3F4FFAE5FF12F2CF72
:1004600024EBC20ED11C465A5F4F8C549F4FAC54A4
:10047000BF4F483A31E0530709F034CFFE017E9672
:100480002081318120FD2FC0C90101969183808395
:1004900081FD04C0C90103969183808382FD03C05E
:1004A00004969183808383FD03C0089691838083A3
:1004B00084FD03C040969183808385FD03C08096B0
:1004C0009183808386FD04C0805C9F4F91838083ED
:1004D00087FD04C080589F4F9183808390FD03C0A7
:1004E00093959183808332960E171F0749F66C9679
:1004F0008EAD9FAD6C9780FD019781FD029782FDC7
:10050000049783FD08976C969FAF8EAF6C97C25F80
:10051000DE4F88819981CE50D14080FD019781FDC9
:10052000029782FD049783FD089784FD409785FD1F
:100530008097C25FDE4F99838883CE50D1408AA5D1
:100540009BA580FD019781FD029782FD049783FDA5
:10055000089784FD409785FD809786FF02C08054F0
:10056000910987FF02C0805891099BA78AA782E062
:10057000BBD491E0811101C090E0692E82D3C450B8
:10058000DD4F19821882CC5FD240A12CB12C41E002
:10059000C650DD4F4883CA5FD24054E1C550DD4F9D
:1005A0005883CB5FD24077247394C250DD4F1882BA
:1005B00019821A821B82CE5FD2406B01E12CF12C92
:1005C000A2E72A2EA8E03A2E04C02114310409F033
:1005D00089D52501440C551C61E070E06C0F7D1F2E
:1005E000460E571EF201858C968CB40161707727F8
:1005F00085E044D4F201658D669561708DE03ED44E
:1006000082FA662760F98CE039D483FA662760F9AC
:1006100086E034D484FA662760F98BE02FD485FA1B
:10062000662760F989E02AD486FA662760F98AE0AD
:1006300025D487FA662760F987E020D4C40188278B
:100640009170692F88E01AD4C40188279270692FAD
:10065000669584E013D48824F4E09F22692D669582
:1006600066958FE00BD42FEFA21AB20A38E6A316D4
:1006700031E0B30609F4D2C160E070E0CB013DD3B4
:1006800061108FC182E030D491E0811101C090E00F
:10069000692EF7D26C197D098E099F09693E734056
:1006A0008105910508F491CFC650DD4F5881CA5F8E
:1006B000D2405F5FC650DD4F5883CA5FD2405C3383
:1006C00009F4AFC16BEA769EA12D1124A695A695DB
:1006D000A6958A2F880F8A0F880F880FA72DA81B31
:1006E0007EE1A79FD0011124C550DD4F2881CB5F4B
:1006F000D24086E0289FB001112436E0539FA0012C
:100700001124FE017E962081318120FD2DC0C9017A
:10071000019681FD02C0C90103969183808382FD09
:1007200003C004969183808383FD03C00896918360
:10073000808384FD03C040969183808385FD03C040
:1007400080969183808386FD04C0805C9F4F918357
:10075000808387FD04C080589F4F9183808390FDE4
:1007600003C093959183808332960E171F0759F625
:100770009D01220F331FE1E0F0E0EC0FFD1FE20FBF
:10078000F31F858D968D80FF03C00197968F858F0F
:1007900081FF09C00297E1E0F0E0EC0FFD1FE20FDE
:1007A000F31F968F858F82FF09C00497E1E0F0E088
:1007B000EC0FFD1FE20FF31F968F858F83FF09C09B
:1007C000E1E0F0E0EC0FFD1FE20FF31F0897968FBA
:1007D000858F660F771FE1E0F0E0EC0FFD1FE60F5D
:1007E000F71F858D968D80FF03C00197968F858FAB
:1007F00081FF09C00297E1E0F0E0EC0FFD1FE60F7A
:10080000F71F968F858F82FF09C00497E1E0F0E023
:10081000EC0FFD1FE60FF71F968F858F83FF09C032
:100820000897E1E0F0E0EC0FFD1FE60FF71F968F51
:10083000858F84FF09C04097E1E0F0E0EC0FFD1FD9
:10084000E60FF71F968F858F85FF09C0E1E0F0E086
:10085000EC0FFD1FE60FF71F8097968F858F440FD3
:10086000551FE1E0F0E0EC0FFD1FE40FF51F858D53
:10087000968D80FF03C00197968F858F81FF09C0F9
:100880000297E1E0F0E0EC0FFD1FE40FF51F968FFB
:10089000858F82FF09C00497E1E0F0E0EC0FFD1FB7
:1008A000E40FF51F968F858F83FF09C00897E1E05D
:1008B000F0E0EC0FFD1FE40FF51F968F858F84FF8E
:1008C00009C04097E1E0F0E0EC0FFD1FE40FF51FD9
:1008D000968F858F85FF09C08097E1E0F0E0EC0FEF
:1008E000FD1FE40FF51F968F858F86FF0AC0805489
:1008F0009109E1E0F0E0EC0FFD1FE40FF51F968F8A
:10090000858F87FF0AC0E1E0F0E0EC0FFD1FE40FE8
:10091000F51F80589109968F858FB3D16B01E12C1B
:10092000F12C53CEC0D19B01AC01281939094A09D9
:100930005B09CE5FDC4F2883C250D340CD5FDC4FD4
:100940003883C350D340CC5FDC4F4883C450D3407E
:10095000CB5FDC4F5883C550D340A5D14B015C0120
:10096000C701B601CE5FDC4F2881C250D340CD5FB6
:10097000DC4F3881C350D340CC5FDC4F4881C4503A
:10098000D340CB5FDC4F5881C550D340A5D519016A
:100990002A012AE030E0B201A1018BE491E08AD57E
:1009A0007DCC82E0A1D281116DCE7DD1C250DD4FD0
:1009B000288139814A815B81CE5FD240261B370B6B
:1009C000480B590BDA01C901893E9340A105B105D5
:1009D00008F458CE60E071E08BE491E0F3D463D189
:1009E000C450DD4F88819981CC5FD240C450DD4F27
:1009F0006883CC5FD240C350DD4F7883CD5FD24057
:100A0000A12CB12C9C0140E050E0C250DD4F288366
:100A100039834A835B83CE5FD24034CEA12CB12C84
:100A20002BCEC550DD4F4881CB5FD2404F5FC550C4
:100A3000DD4F4883CB5FD2404C33F1F05BEA759ECB
:100A4000A12D1124A695A695A6958A2F880F8A0F09
:100A5000880F880FA72DA81B6EE1A69FD001112437
:100A600086E0489FB001112440E050E0C650DD4FC1
:100A70001882CA5FD24045CE73949BEA799EA12D1D
:100A80001124A695A695A6958A2F880F8A0F880F00
:100A9000880FA72DA81B91F440E050E060E070E0C3
:100AA000A0E0B0E0C650DD4F1882CA5FD240C5500A
:100AB000DD4F1882CB5FD240712C23CEEEE1AE9F8A
:100AC000D001112440E050E060E070E0C650DD4FFE
:100AD0001882CA5FD240C550DD4F1882CB5FD2402A
:100AE00010CE81E080933D011092380110923701C1
:100AF0008BE091E0909336018093350110923401A0
:100B0000E0E2F1E0108211821282138214821582D7
:100B100016821782E8E2F1E01082118212821382BB
:100B200014821582168217821092300110923101C0
:100B3000109232011092330108951F920F920FB656
:100B40000F9211242F933F934F935F936F937F9353
:100B50008F939F93AF93BF93EF93FF9380913E0149
:100B600090913F01892B29F0E0913E01F0913F01E6
:100B70000995FF91EF91BF91AF919F918F917F91D7
:100B80006F915F914F913F912F910F900FBE0F90FA
:100B90001F9018951F920F920FB60F9211242F934A
:100BA0003F934F935F936F937F938F939F93AF93F5
:100BB000BF93EF93FF938091400190914101892B66
:100BC00029F0E0914001F09141010995FF91EF91E9
:100BD000BF91AF919F918F917F916F915F914F9155
:100BE0003F912F910F900FBE0F901F9018951F925D
:100BF0000F920FB60F9211242F933F938F939F93D1
:100C0000AF93BF938091420190914301A091440121
:100C1000B091450130914A01232F2D5F2D3720F4EB
:100C20000196A11DB11D05C0232F2A570296A11DB3
:100C3000B11D20934A018093420190934301A093F8
:100C40004401B09345018091460190914701A091E4
:100C50004801B09149010196A11DB11D8093460143
:100C600090934701A0934801B0934901BF91AF9180
:100C70009F918F913F912F910F900FBE0F901F90DA
:100C800018950F931F938FB7F8940091420110911C
:100C9000430120914401309145018FBFB801C90142
:100CA0001F910F9108950F931F939FB7F894009190
:100CB000460110914701209148013091490186B5C4
:100CC000A89B06C08F3F21F00F5F1F4F2F4F3F4F54
:100CD0009FBF322F212F102F0027080F111D211D1C
:100CE000311D42E0000F111F221F331F4A95D1F71B
:100CF000B801C9011F910F910895CF92DF92EF9231
:100D0000FF92CF93DF936B017C01CDDFEB010DC030
:100D1000CADF6C1B7D0B683E734038F081E0C81A57
:100D2000D108E108F108C851DC4FC114D104E10435
:100D3000F10471F7DF91CF91FF90EF90DF90CF90AA
:100D40000895789484B5826084BD84B5816084BD43
:100D500085B5826085BD85B5816085BDEEE6F0E034
:100D6000808181608083E1E8F0E010828081826090
:100D70008083808181608083E0E8F0E08081816011
:100D80008083E1EBF0E0808184608083E0EBF0E041
:100D9000808181608083EAE7F0E0808184608083E5
:100DA000808182608083808181608083808180688F
:100DB00080831092C1000895833069F028F4813057
:100DC000A1F0823011F514C08630B1F08730C1F047
:100DD0008430D9F404C0809180008F7703C0809163
:100DE00080008F7D80938000089584B58F7702C046
:100DF00084B58F7D84BD08958091B0008F7703C046
:100E00008091B0008F7D8093B0000895CF93DF93E1
:100E100090E0FC01E458FF4F4491FC01E057FF4F84
:100E20008491882341F190E0880F991FFC01E854D8
:100E3000FF4F25913491D90182559F4FFC01859137
:100E40009491C82FD92F9FB7F8948C91611106C047
:100E5000409584238C938881842308C0623041F4B8
:100E6000242F209582238C938881842B888302C031
:100E7000842B8C939FBFDF91CF9108950F931F9385
:100E8000CF93DF931F92CDB7DEB7282F30E0F90163
:100E9000E859FF4F8491F901E458FF4F1491F9018B
:100EA000E057FF4F04910023C9F0882319F06983AC
:100EB00083DF6981E02FF0E0EE0FFF1FE255FF4F67
:100EC00085919491DC019FB7F8948C91611103C0D6
:100ED0001095812301C0812B8C939FBF0F90DF91D0
:100EE000CF911F910F910895CF93DF93282F30E07A
:100EF000F901E859FF4F8491F901E458FF4FD4916B
:100F0000F901E057FF4FC491CC2381F0811154DFE8
:100F1000EC2FF0E0EE0FFF1FEC55FF4F8591949101
:100F2000DC018C918D2321E030E011F420E030E0F1
:100F3000C901DF91CF910895FC0184859585FC015D
:100F4000E05CFF4F20813181FC01EE5BFF4F80812F
:100F50009181281B390B2F733327C9010895FC0198
:100F600084859585FC01E05CFF4F40815181FC0147
:100F7000EE5BFF4F208131814217530741F0019012
:100F8000F081E02DE80FF91F208130E002C02FEF43
:100F90003FEFC9010895FC0184859585FC01E05C63
:100FA000FF4F40815181FC01EE5BFF4F2081318179
:100FB0004217530781F0A081B181A80FB91F8C910E
:100FC000208131812F5F3F4F2F733327318320835F
:100FD000282F30E002C02FEF3FEFC9010895FC0138
:100FE00081A1882329F0A489B5898C9186FFFBCF44
:100FF00011A20895CF93DF93FC0126853785D9018F
:10100000A05CBF4F8D919C91119701968F7399278A
:10101000E901CE5BDF4F4881598184179507D9F3E9
:101020000D90BC91A02DA20FB31F6C93A685B78520
:10103000A05CBF4F11969C938E93A689B7892C9183
:1010400081E090E0078C02C0880F991F0A94E2F7B4
:10105000282B2C9381E081A30488F589E02D8081E1
:101060008064808381E090E0DF91CF9108950895BE
:101070001F920F920FB60F9211242F933F934F930D
:101080008F939F93EF93FF938091C00082FD1CC0CC
:101090004091C6008091F1019091F20101968F7309
:1010A00099272091F3013091F4018217930771F091
:1010B000E091F101F091F201EF54FE4F40839093E3
:1010C000F2018093F10102C08091C600FF91EF917F
:1010D0009F918F914F913F912F910F900FBE0F9045
:1010E0001F9018958BE491E027DF892B09F0BFCF83
:1010F00008951F920F920FB60F9211242F933F93D2
:101100008F939F93EF93FF932091AD013091AE01A8
:101110008091AF019091B0012817390731F4809187
:10112000C1008F7D8093C10014C0E091AF01F091A8
:10113000B001E359FE4F20818091AF019091B00141
:1011400001968F7399279093B0018093AF012093FC
:10115000C600FF91EF919F918F913F912F910F903A
:101160000FBE0F901F901895CF92DF92EF92FF92D3
:10117000CF93DF93EC016A017B01411581EE5807A3
:1011800061057105F1F0EC89FD8981E090E008A02E
:1011900002C0880F991F0A94E2F7808360E079E02B
:1011A0008DE390E0A701960197D1215031094109C3
:1011B00051095695479537952795211580E13807B0
:1011C00090F0EC89FD89108260E874E88EE190E08F
:1011D000A701960181D12150310941095109569544
:1011E000479537952795E889F9893083EA89FB89FE
:1011F000208319A2EE89FF89408181E090E09C0163
:101200000C8C02C0220F331F0A94E2F7422B40835A
:10121000EE89FF8940819C010D8C02C0220F331F93
:101220000A94E2F7422B4083EE89FF8940819C01BA
:101230000E8C02C0220F331F0A94E2F7422B408328
:10124000EE89FF8920810F8C02C0880F991F0A94B4
:10125000E2F7809582238083DF91CF91FF90EF901A
:10126000DF90CF90089510924E0110924D0188EEBC
:1012700093E0A0E0B0E080934F0190935001A093E1
:101280005101B093520183E191E090934C0180931E
:101290004B0181EB91E090935801809357018DE6CB
:1012A00091E090935A018093590185EC90E09093DE
:1012B0005C0180935B0184EC90E090935E018093ED
:1012C0005D0180EC90E09093600180935F0181EC80
:1012D00090E0909362018093610182EC90E09093A2
:1012E00064018093630186EC90E0909366018093A3
:1012F000650184E08093670183E08093680187E063
:101300008093690185E080936A0181E080936B019D
:101310000895CF92DF92EF92FF920F931F93CF9396
:10132000DF936C01EB017A01E60EF71E00E010E09E
:101330000BC06991D601ED91FC910190F081E02DF7
:10134000C6010995080F191FCE15DF0591F7C801D1
:10135000DF91CF911F910F91FF90EF90DF90CF9091
:1013600008956115710581F0DB010D900020E9F70A
:10137000AD0141505109461B570BDC01ED91FC9129
:101380000280F381E02D099480E090E00895DC0173
:10139000ED91FC910190F081E02D09940F931F9342
:1013A000CF93DF93EC016DE0F2DF8C016AE0CE01B8
:1013B000EEDF9C01200F311FC901DF91CF911F91FA
:1013C0000F9108950F931F93CF93DF93EC01C9DF23
:1013D0008C01CE01E3DF9801280F391FC901DF918D
:1013E000CF911F910F9108954F925F926F927F92CC
:1013F0009F92AF92BF92CF92DF92EF92FF920F93A4
:101400001F93CF93DF93CDB7DEB7A1970FB6F894B4
:10141000DEBF0FBECDBF5C016A017B01922E19A217
:1014200081E0821710F08AE0982E8E010F5D1F4F29
:10143000492C512C612C712CC701B601A3019201DA
:101440004BD08C2D929E80191124015011098A30A5
:1014500014F4805D01C0895CF801808369017A0120
:10146000C114D104E104F10439F7B801C50179DFF1
:10147000A1960FB6F894DEBF0FBECDBFDF91CF911E
:101480001F910F91FF90EF90DF90CF90BF90AF90A2
:101490009F907F906F905F904F9008952115310538
:1014A00041F4DC01ED91FC910190F081E02D642F7D
:1014B00009949ACF0F931F93CF93DF93EC01EEDF44
:1014C0008C01CE016BDF9C01200F311FC901DF9120
:1014D000CF911F910F910895A1E21A2EAA1BBB1B59
:1014E000FD010DC0AA1FBB1FEE1FFF1FA217B307F0
:1014F000E407F50720F0A21BB30BE40BF50B661F06
:10150000771F881F991F1A9469F7609570958095C9
:1015100090959B01AC01BD01CF010895EE0FFF1F17
:0C1520000590F491E02D0994F894FFCFA1
:10152C00666C616E6B6500000000008B0089090021
:10153C00000000FA0789099C07CB07AF07EF0700EB
:00000001FF
