:100000005DC0000098C10000C3C100007CC00000BA
:100010007AC0000078C0000076C0000074C0000004
:1000200072C0000070C000006EC000006CC0000014
:100030006AC0000068C0000066C0000064C0000024
:10004000D4C1000060C00000D7C3000016C4000087
:100050005AC0000058C0000056C0000054C0000044
:1000600052C0000050C00000000000070002010064
:100070000003040600000000000000000102040864
:100080001020408001020408102001020408102002
:10009000040404040404040402020202020203032E
:1000A0000303030300000000250028002B000000CC
:1000B0000000240027002A006F01F70411241FBE4E
:1000C000CFEFD8E0DEBFCDBF11E0A0E0B1E0E0E9C6
:1000D000FCE002C005900D92A831B107D9F711E0FC
:1000E000A8E1B1E001C01D92AD3EB107E1F710E01B
:1000F000CCEBD0E003C02297FE01C4D5C83BD107AA
:10010000D1F705D0C3C57CCF81E090E00895CF93AF
:10011000DF93CDB7DEB7C95FD2400FB6F894DEBF2C
:100120000FBECDBFFAD161E085E05CD261E08DE029
:1001300059D261E08CE056D261E086E053D261E0B2
:100140008BE050D261E089E04DD261E08AE04AD292
:1001500061E087E047D261E088E044D261E084E07A
:1001600041D261E08FE03ED285E08B8B8DE08C8BBD
:100170008CE08D8B86E08E8B8BE08F8B89E0888F77
:100180008AE0898F87E08A8F88E08B8F84E08C8F6C
:100190008FE08D8F60E083E025D260E08EE022D298
:1001A00062E082E01FD26BD1AB01BC012AE030E0FB
:1001B00083E491E031D563D1AB01BC012AE030E0AA
:1001C00083E491E029D561E08B8944D261E08C8998
:1001D00041D261E08D893ED261E08E893BD261E0FF
:1001E0008F8938D261E0888D35D261E0898D32D235
:1001F00061E08A8D2FD261E08B8D2CD261E08C8DF5
:1002000029D261E08D8D26D240E058E067E070E0B1
:1002100083E491E06DD386E394E0892B09F430C048
:1002200060E08DE017D260E08CE014D260E086E000
:1002300011D264E670E080E090E04BD161E086E0AE
:1002400009D261E08DE006D261E08CE003D260E08B
:1002500087E000D260E088E0FDD160E084E0FAD180
:1002600064E670E080E090E034D161E087E0F2D1B4
:1002700061E088E0EFD161E084E0ECD1F7D2D0CF4B
:1002800060E08DE0E7D160E08CE0E4D160E086E002
:10029000E1D164E670E080E090E01BD161E086E0AF
:1002A000D9D161E08DE0D6D161E08CE0D3D160E0BE
:1002B00087E0D0D160E088E0CDD160E084E0CAD1B1
:1002C00064E670E080E090E004D161E087E0C2D1B4
:1002D00061E088E0BFD161E084E0BCD1D1CF81E0B2
:1002E000809335011092300110922F0184E091E04B
:1002F00090932E0180932D0110922C01E8E1F1E002
:100300001082118212821382148215821682178241
:10031000E0E2F1E0108211821282138214821582CF
:1003200016821782109228011092290110922A0138
:1003300010922B0108951F920F920FB60F92112465
:100340002F933F934F935F936F937F938F939F93DD
:10035000AF93BF93EF93FF93809136019091370154
:10036000892B29F0E0913601F09137010995FF9131
:10037000EF91BF91AF919F918F917F916F915F911D
:100380004F913F912F910F900FBE0F901F90189596
:100390001F920F920FB60F9211242F933F934F93FA
:1003A0005F936F937F938F939F93AF93BF93EF93DD
:1003B000FF938091380190913901892B29F0E091C8
:1003C0003801F09139010995FF91EF91BF91AF91FB
:1003D0009F918F917F916F915F914F913F912F915D
:1003E0000F900FBE0F901F9018951F920F920FB68F
:1003F0000F9211242F933F938F939F93AF93BF93AB
:1004000080913A0190913B01A0913C01B0913D0156
:1004100030914201232F2D5F2D3720F40196A11D2D
:10042000B11D05C0232F2A570296A11DB11D20938F
:10043000420180933A0190933B01A0933C01B09319
:100440003D0180913E0190913F01A0914001B0910A
:1004500041010196A11DB11D80933E0190933F0182
:10046000A0934001B0934101BF91AF919F918F91B3
:100470003F912F910F900FBE0F901F9018950F93E3
:100480001F939FB7F89400913E0110913F01209176
:1004900040013091410186B5A89B06C08F3F21F0F5
:1004A0000F5F1F4F2F4F3F4F9FBF322F212F102F16
:1004B0000027080F111D211D311D42E0000F111FE3
:1004C000221F331F4A95D1F7B801C9011F910F911F
:1004D0000895CF92DF92EF92FF92CF93DF936B015B
:1004E0007C01CDDFEB010DC0CADF6C1B7D0B683ECC
:1004F000734038F081E0C81AD108E108F108C8510A
:10050000DC4FC114D104E104F10471F7DF91CF9104
:10051000FF90EF90DF90CF900895789484B582603B
:1005200084BD84B5816084BD85B5826085BD85B597
:10053000816085BDEEE6F0E0808181608083E1E846
:10054000F0E010828081826080838081816080837E
:10055000E0E8F0E0808181608083E1EBF0E0808181
:1005600084608083E0EBF0E0808181608083EAE753
:10057000F0E08081846080838081826080838081DC
:10058000816080838081806880831092C10008959B
:10059000833069F028F48130A1F0823011F514C065
:1005A0008630B1F08730C1F08430D9F404C0809136
:1005B00080008F7703C0809180008F7D80938000C2
:1005C000089584B58F7702C084B58F7D84BD08956A
:1005D0008091B0008F7703C08091B0008F7D8093B1
:1005E000B0000895CF93DF9390E0FC01E458FF4FF3
:1005F0004491FC01E057FF4F8491882341F190E042
:10060000880F991FFC01E255FF4F25913491D901C4
:100610008C559F4FFC0185919491C82FD92F9FB77E
:10062000F8948C91611106C0409584238C93888145
:10063000842308C0623041F4242F209582238C93B8
:100640008881842B888302C0842B8C939FBFDF9189
:10065000CF9108950F931F93CF93DF931F92CDB740
:10066000DEB7282F30E0F901E859FF4F8491F901F6
:10067000E458FF4F1491F901E057FF4F0491002314
:10068000C9F0882319F0698383DF6981E02FF0E0E6
:10069000EE0FFF1FEC55FF4F85919491DC019FB742
:1006A000F8948C91611103C01095812301C0812BB6
:1006B0008C939FBF0F90DF91CF911F910F91089561
:1006C000FC0184859585FC01E05CFF4F2081318130
:1006D000FC01EE5BFF4F80819181281B390B2F734A
:1006E0003327C9010895FC0184859585FC01E05CF0
:1006F000FF4F40815181FC01EE5BFF4F2081318132
:100700004217530741F00190F081E02DE80FF91FE7
:10071000208130E002C02FEF3FEFC9010895FC01B6
:1007200084859585FC01E05CFF4F40815181FC018F
:10073000EE5BFF4F208131814217530781F0A0818A
:10074000B181A80FB91F8C91208131812F5F3F4F5C
:100750002F73332731832083282F30E002C02FEFFF
:100760003FEFC9010895FC0181A1882329F0A489E4
:10077000B5898C9186FFFBCF11A20895CF93DF93AB
:10078000FC0126853785D901A05CBF4F8D919C91D6
:10079000119701968F739927E901CE5BDF4F48814E
:1007A000598184179507D9F30D90BC91A02DA20F04
:1007B000B31F6C93A685B785A05CBF4F11969C9321
:1007C0008E93A689B7892C9181E090E0078C02C0B6
:1007D000880F991F0A94E2F7282B2C9381E081A3BC
:1007E0000488F589E02D80818064808381E090E039
:1007F000DF91CF91089508951F920F920FB60F9237
:1008000011242F933F934F938F939F93EF93FF93D5
:100810008091C00082FD1CC04091C6008091E9011A
:100820009091EA0101968F7399272091EB01309105
:10083000EC018217930771F0E091E901F091EA0170
:10084000E755FE4F40839093EA018093E90102C08F
:100850008091C600FF91EF919F918F914F913F91B1
:100860002F910F900FBE0F901F90189583E491E089
:1008700027DF892B09F0BFCF08951F920F920FB683
:100880000F9211242F933F938F939F93EF93FF9396
:100890002091A5013091A6018091A7019091A80116
:1008A0002817390731F48091C1008F7D8093C100F2
:1008B00014C0E091A701F091A801EB59FE4F2081EF
:1008C0008091A7019091A80101968F739927909329
:1008D000A8018093A7012093C600FF91EF919F91FB
:1008E0008F913F912F910F900FBE0F901F901895F1
:1008F000CF92DF92EF92FF92CF93DF93EC016A01E8
:100900007B01411581EE580761057105F1F0EC8915
:10091000FD8981E090E008A002C0880F991F0A9429
:10092000E2F7808360E079E08DE390E0A701960133
:1009300085D121503109410951095695479537957F
:100940002795211580E1380790F0EC89FD89108208
:1009500060E874E88EE190E0A70196016FD1215024
:100960003109410951095695479537952795E889E9
:10097000F9893083EA89FB89208319A2EE89FF89EE
:10098000408181E090E09C010C8C02C0220F331F5B
:100990000A94E2F7422B4083EE89FF8940819C0153
:1009A0000D8C02C0220F331F0A94E2F7422B4083C2
:1009B000EE89FF8940819C010E8C02C0220F331FFB
:1009C0000A94E2F7422B4083EE89FF8920810F8C45
:1009D00002C0880F991F0A94E2F7809582238083D2
:1009E000DF91CF91FF90EF90DF90CF90089510921C
:1009F00046011092450188EE93E0A0E0B0E08093BC
:100A0000470190934801A0934901B0934A018CE0BB
:100A100091E0909344018093430189EA91E090939F
:100A2000500180934F0185E691E0909352018093AD
:100A3000510185EC90E0909354018093530184EC34
:100A400090E0909356018093550180EC90E0909354
:100A500058018093570181EC90E090935A01809364
:100A6000590182EC90E090935C0180935B0186ECED
:100A700090E090935E0180935D0184E080935F013C
:100A800083E08093600187E08093610185E080933B
:100A9000620181E0809363010895CF92DF92EF922B
:100AA000FF920F931F93CF93DF936C01EB017A01B9
:100AB000E60EF71E00E010E00BC06991D601ED9143
:100AC000FC910190F081E02DC6010995080F191FD6
:100AD000CE15DF0591F7C801DF91CF911F910F91DE
:100AE000FF90EF90DF90CF9008956115710581F030
:100AF000DB010D900020E9F7AD0141505109461B83
:100B0000570BDC01ED91FC910280F381E02D0994FB
:100B100080E090E00895DC01ED91FC910190F0817E
:100B2000E02D09940F931F93CF93DF93EC016DE0B9
:100B3000F2DF8C016AE0CE01EEDF9C01200F311F55
:100B4000C901DF91CF911F910F9108954F925F924C
:100B50006F927F929F92AF92BF92CF92DF92EF926D
:100B6000FF920F931F93CF93DF93CDB7DEB7A1977B
:100B70000FB6F894DEBF0FBECDBF5C016A017B01EA
:100B8000922E19A281E0821710F08AE0982E8E0131
:100B90000F5D1F4F492C512C612C712CC701B601E0
:100BA000A30192014BD08C2D929E801911240150EB
:100BB00011098A3014F4805D01C0895CF8018083DA
:100BC00069017A01C114D104E104F10439F7B801D3
:100BD000C5018BDFA1960FB6F894DEBF0FBECDBF67
:100BE000DF91CF911F910F91FF90EF90DF90CF9009
:100BF000BF90AF909F907F906F905F904F900895BF
:100C00002115310541F4DC01ED91FC910190F08159
:100C1000E02D642F09949ACF0F931F93CF93DF9306
:100C2000EC01EEDF8C01CE017DDF9C01200F311F36
:100C3000C901DF91CF911F910F910895A1E21A2E62
:100C4000AA1BBB1BFD010DC0AA1FBB1FEE1FFF1F70
:100C5000A217B307E407F50720F0A21BB30BE40BC0
:100C6000F50B661F771F881F991F1A9469F7609507
:100C70007095809590959B01AC01BD01CF010895C1
:100C8000EE0FFF1F0590F491E02D0994F894FFCF2B
:100C90000000000084004D0500000000BE034D056B
:080CA00060038F037303B3032B
:00000001FF
