:1000000035C0000058C0000056C0000054C00000B9
:1000100052C0000050C000004EC000004CC00000A4
:100020004AC0000048C0000046C0000044C00000B4
:1000300042C0000040C000003EC000003CC00000C4
:1000400079C0000038C0000096C10000D5C1000092
:1000500032C0000030C000002EC000002CC00000E4
:100060002AC0000028C000006E00B60211241FBE86
:10007000CFEFD8E0DEBFCDBF11E0A0E0B1E0ECEB08
:10008000F6E002C005900D92A831B107D9F711E052
:10009000A8E1B1E001C01D92A93EB107E1F710E06F
:1000A000CCE6D0E003C02297FE0102D3C836D107C8
:1000B000D1F705D001C3A4CF81E090E0089584D0AA
:1000C00040E058E067E070E08FE391E0D0D185EF49
:1000D00091E0892B11F089D1FECFFFCF81E0809391
:1000E00035011092300110922F0184E091E090933D
:1000F0002E0180932D0110922C01E8E1F1E0108295
:100100001182128213821482158216821782E0E213
:10011000F1E01082118212821382148215821682FB
:100120001782109228011092290110922A01109230
:100130002B0108951F920F920FB60F9211242F9347
:100140003F938F939F93AF93BF938091360190918C
:100150003701A0913801B091390130913E01232F30
:100160002D5F2D3720F40196A11DB11D05C0232F51
:100170002A570296A11DB11D20933E01809336019E
:1001800090933701A0933801B093390180913A01DF
:1001900090913B01A0913C01B0913D010196A11DC0
:1001A000B11D80933A0190933B01A0933C01B09321
:1001B0003D01BF91AF919F918F913F912F910F90F2
:1001C0000FBE0F901F901895789484B5826084BDFF
:1001D00084B5816084BD85B5826085BD85B581604B
:1001E00085BDEEE6F0E0808181608083E1E8F0E0AB
:1001F0001082808182608083808181608083E0E8DA
:10020000F0E0808181608083E1EBF0E080818460B8
:100210008083E0EBF0E0808181608083EAE7F0E0BA
:10022000808184608083808182608083808181601E
:1002300080838081806880831092C1000895FC01D2
:1002400084859585FC01E05CFF4F20813181FC01B4
:10025000EE5BFF4F80819181281B390B2F73332771
:10026000C9010895FC0184859585FC01E05CFF4F80
:1002700040815181FC01EE5BFF4F208131814217AB
:10028000530741F00190F081E02DE80FF91F208124
:1002900030E002C02FEF3FEFC9010895FC018485D3
:1002A0009585FC01E05CFF4F40815181FC01EE5BD4
:1002B000FF4F208131814217530781F0A081B18126
:1002C000A80FB91F8C91208131812F5F3F4F2F7371
:1002D000332731832083282F30E002C02FEF3FEFF8
:1002E000C9010895FC0181A1882329F0A489B58959
:1002F0008C9186FFFBCF11A20895CF93DF93FC0171
:1003000026853785D901A05CBF4F8D919C911197AF
:1003100001968F739927E901CE5BDF4F48815981A0
:1003200084179507D9F30D90BC91A02DA20FB31F90
:100330006C93A685B785A05CBF4F11969C938E9356
:10034000A689B7892C9181E090E0078C02C0880FC4
:10035000991F0A94E2F7282B2C9381E081A304884B
:10036000F589E02D80818064808381E090E0DF91D9
:10037000CF91089508951F920F920FB60F921124F6
:100380002F933F934F938F939F93EF93FF9380917E
:10039000C00082FD1CC04091C6008091E501909193
:1003A000E60101968F7399272091E7013091E801CA
:1003B0008217930771F0E091E501F091E601EB55AA
:1003C000FE4F40839093E6018093E50102C0809147
:1003D000C600FF91EF919F918F914F913F912F9187
:1003E0000F900FBE0F901F9018958FE391E027DFBD
:1003F000892B09F0BFCF08951F920F920FB60F926D
:1004000011242F933F938F939F93EF93FF9320910A
:10041000A1013091A2018091A3019091A40128171C
:10042000390731F48091C1008F7D8093C10014C0E1
:10043000E091A301F091A401EF59FE4F208180913A
:10044000A3019091A40101968F7399279093A40121
:100450008093A3012093C600FF91EF919F918F910C
:100460003F912F910F900FBE0F901F901895CF9234
:10047000DF92EF92FF92CF93DF93EC016A017B0151
:10048000411581EE580761057105F1F0EC89FD8990
:1004900081E090E008A002C0880F991F0A94E2F75B
:1004A000808360E079E08DE390E0A7019601DCD0E5
:1004B000215031094109510956954795379527959E
:1004C000211580E1380790F0EC89FD89108260E801
:1004D00074E88EE190E0A7019601C6D02150310961
:1004E000410951095695479537952795E889F98926
:1004F0003083EA89FB89208319A2EE89FF89408134
:1005000081E090E09C010C8C02C0220F331F0A9402
:10051000E2F7422B4083EE89FF8940819C010D8CDC
:1005200002C0220F331F0A94E2F7422B4083EE8968
:10053000FF8940819C010E8C02C0220F331F0A9458
:10054000E2F7422B4083EE89FF8920810F8C02C0A5
:10055000880F991F0A94E2F7809582238083DF91A8
:10056000CF91FF90EF90DF90CF90089510924201CD
:100570001092410188EE93E0A0E0B0E08093430147
:1005800090934401A0934501B09346018CE091E023
:100590009093400180933F0185EA91E090934C0154
:1005A00080934B0181E691E090934E0180934D0141
:1005B00085EC90E09093500180934F0184EC90E0A3
:1005C000909352018093510180EC90E090935401FC
:1005D0008093530181EC90E09093560180935501F4
:1005E00082EC90E0909358018093570186EC90E064
:1005F00090935A018093590184E080935B0183E0DA
:1006000080935C0187E080935D0185E080935E01CB
:1006100081E080935F010895CF92DF92EF92FF9285
:100620000F931F93CF93DF936C01EB017A01E60EDA
:10063000F71E00E010E00BC06991D601ED91FC912E
:100640000190F081E02DC6010995080F191FCE1504
:10065000DF0591F7C801DF91CF911F910F91FF90B6
:10066000EF90DF90CF900895A1E21A2EAA1BBB1B3A
:10067000FD010DC0AA1FBB1FEE1FFF1FA217B3076E
:10068000E407F50720F0A21BB30BE40BF50B661F84
:10069000771F881F991F1A9469F760957095809548
:1006A00090959B01AC01BD01CF010895EE0FFF1F96
:0C06B0000590F491E02D0994F894FFCF20
:1006BC00000000005C000C03000000007D010C0336
:0806CC001F014E013201720111
:00000001FF
